:040000005BEF00F0C2
:100008005D82FACF07F0FBCF08F0D9CF09F0DACF3D
:100018000AF0F3CF0BF0F4CF0CF0F6CF0DF0F7CFDA
:100028000EF0F8CF0FF0F5CF10F0A0A61EEF00F0FD
:1000380020EF00F035EF00F0A1A625EF00F027EF44
:1000480000F035EF00F002D833EF00F00500FA6E4B
:100058005150FD6E5250FE6EFF6AFA50120045EF85
:1000680000F09DA63AEF00F03CEF00F045EF00F0FD
:100078009EA641EF00F043EF00F045EF00F027EFB8
:1000880000F010C0F5FF0FC0F8FF0EC0F7FF0DC05D
:10009800F6FF0CC0F4FF0BC0F3FF0AC0DAFF09C07B
:1000A800D9FF08C0FBFF07C0FAFF5D9211008FEF70
:0200B80010F046
:1010000000741E000000002A230000AE2000000033
:1010100000000000000000000000000000000000D0
:101020000000000000000000009E2182210000005E
:1010300000E422AE22BE221814A617D82268196234
:10104000235A2352234A2342233A233223CC22FC1D
:101050001B54656D7065726174757265203A20006D
:101060002028696E206865786129200054696D65C3
:10107000203A200044617465203A20002564002550
:03108000780000F5
:101084001C50D96EDA6ADFCFF6FF100EF76EF86ADD
:101094000800F550250AD8A452EF08F054EF08F0E0
:1010A40097EF09F01C50D96EDA6ADF2A000E426EFF
:1010B400000E416E41C053F0436844681C50D96E21
:1010C400DA6ADF50226E22C0F6FF100EF76EF86A5D
:1010D4000800F550640AD8B472EF08F074EF08F011
:1010E40083EF08F022C0F6FF100EF76EF86A0800CE
:1010F400F550690AD8A481EF08F083EF08F009EFEE
:1011040009F01D50D96EDA6A020EDF26DF5CD96E53
:10111400DA6ADECF23F0DECF24F01C50D96EDA6A0F
:101124002228DF6E200E276E24BE9BEF08F09EEF70
:1011340008F0010E9FEF08F0000E206E27062750DE
:10114400840FD96EDA6A23C011F024C012F0000EA5
:10115400146E0A0E136E26EC0BF011C017F012C0B9
:1011640018F089EC0FF01750300FDF6E23C011F028
:1011740024C012F0000E146E0A0E136EAAEC09F0CD
:1011840011C023F012C024F023502410D8B4CDEFA2
:1011940008F0CFEF08F0D7EF08F02750D8A4D5EF28
:1011A40008F0D7EF08F0A0EF08F02750D8B4DDEF2F
:1011B40008F0DFEF08F0FEEF08F02050D8B4E5EFB8
:1011C40008F0E7EF08F0FEEF08F027062750840F39
:1011D400D96EDA6A2D0EDF6EFEEF08F02750840F09
:1011E400D96EDA6ADF501E6E1E50116E126A1BC071
:1011F40013F07EEC0BF0272A200E2718D8A405EF55
:1012040009F007EF09F0F0EF08F0A9EF09F022C0A8
:10121400F6FF100EF76EF86A0800F550780AD8A4A5
:1012240016EF09F018EF09F091EF09F01D50D96E8F
:10123400DA6A020EDF26DF5CD96EDA6ADECF23F0CB
:10124400DECF24F01C50D96EDA6A2228DF6E7AEFE2
:1012540009F0200E276E23500F0B216E0A0E216019
:1012640036EF09F038EF09F03CEF09F0300E212693
:101274003EEF09F0570E212627062750840FD96E1A
:10128400DA6A21C0DFFF233A243A0F0E23162450D2
:10129400F00B23120F0E241623502410D8B455EF4C
:1012A40009F057EF09F06FEF09F02750D8A45DEF6C
:1012B40009F05FEF09F02DEF09F06FEF09F0275007
:1012C400840FD96EDA6ADF501E6E1E50116E126AD8
:1012D4001BC013F07EEC0BF0272A200E2718D8A48D
:1012E40076EF09F078EF09F061EF09F0A9EF09F062
:1012F40022C0F6FF100EF76EF86A0800F5501E6E55
:101304001F6A1F50000AD8B48AEF09F091EF09F060
:101314001E50780AD8B42BEF09F091EF09F01C5055
:10132400D96EDA6ADF2AA9EF09F01C50D96EDA6A9D
:10133400DFCFF6FF100EF76EF86A0800F550116E55
:10134400126A1BC013F07EEC0BF091EF09F012004F
:10135400000E166E14BEB3EF09F0B1EF09F0B9EF49
:1013640009F0136C141ED8B0142A010E166E12BEA6
:10137400C0EF09F0BEEF09F0C6EF09F0116C121EC0
:10138400D8B0122A010E161A000E186E000E176E2F
:1013940013501410D8B4D1EF09F0D3EF09F0FBEFD8
:1013A40009F0010E156EDBEF09F0D89013361436F0
:1013B400152A14AEE0EF09F0E2EF09F0D7EF09F0D7
:1013C400D890173618361350115C14501258D8A000
:1013D400EEEF09F0F0EF09F0F5EF09F01350115EAC
:1013E4001450125A1780D89014321332152EE2EF8B
:1013F40009F01650D8B401EF0AF003EF0AF007EF32
:101404000AF0176C181ED8B0182A17C011F018C0AB
:1014140012F0120017EC11F00009D8B414EF0AF01E
:1014240016EF0AF051EF0AF024EF0AF0B1EC11F0D4
:101434006DEF0AF0ADEC11F06DEF0AF0A5EC11F0D0
:101444006DEF0AF072C00AF073C00BF002D835EFEA
:101454000AF00500FA6E00016651FD6E6751FE6EDA
:10146400FF6AFA501200026E036A0350000AD8B4ED
:101474003EEF0AF020EF0AF00250010AD8B420EF40
:101484000AF0030AD8B418EF0AF0010AD8B41CEF22
:101494000AF0070AD8B420EF0AF020EF0AF000019E
:1014A40083917DC0D9FF7EC0DAFF7D4B7E2BDF5058
:1014B400B5EC11F000017F07D8A080077F5180119F
:1014C400D8A467EF0AF069EF0AF06CEF0AF0060E91
:1014D4006DEF0AF0030E12006C0E156E1550D8A4B1
:1014E400100E166E75EC0CF05B0E3D6EA4C03EF053
:1014F400E9EC0FF05B0E156E166A75EC0CF057EC08
:1015040010F00009D8B489EF0AF08BEF0AF081EFEC
:101514000AF03A0E95EC11F05B0E3D6EA5C03EF05C
:10152400E9EC0FF05B0E156E166A75EC0CF057ECD7
:1015340010F00009D8B4A1EF0AF0A3EF0AF099EF74
:101544000AF03A0E95EC11F05B0E3D6EA6C03EF02B
:10155400E9EC0FF05B0E156E166A75EC0CF057ECA7
:1015640010F00009D8B4B9EF0AF0BBEF0AF0B1EFFC
:101574000AF00D0E95EC11F0030E406E8A0E3F6ECC
:10158400560EE82EFED73F2EFCD7402EFAD7120077
:10159400740E156E1550D8A4100E166E75EC0CF062
:1015A4005B0E3D6EA9C03EF0E9EC0FF05B0E156ECC
:1015B400166A75EC0CF057EC10F00009D8B4E5EF9E
:1015C4000AF0E7EF0AF0DDEF0AF02F0E95EC11F0C8
:1015D4005B0E3D6EA8C03EF0E9EC0FF05B0E156E9D
:1015E400166A75EC0CF057EC10F00009D8B4FDEF56
:1015F4000AF0FFEF0AF0F5EF0AF02F0E95EC11F068
:101604005B0E3D6EA7C03EF0E9EC0FF05B0E156E6D
:10161400166A75EC0CF057EC10F00009D8B415EF0D
:101624000BF017EF0BF00DEF0BF00D0E95EC11F026
:10163400030E406E8A0E3F6E560EE82EFED73F2EE6
:10164400FCD7402EFAD71200000E166E12BE2FEFF2
:101654000BF02DEF0BF035EF0BF0116C121ED8B020
:10166400122A010E166E14BE3CEF0BF03AEF0BF08B
:1016740040EF0BF0136C141ED8B0142A135014103E
:10168400D8B447EF0BF049EF0BF06DEF0BF0010E00
:10169400156E51EF0BF0D89013361436152A14AE8C
:1016A40056EF0BF058EF0BF04DEF0BF01350115CAD
:1016B40014501258D8A061EF0BF063EF0BF067EFF2
:1016C4000BF01350115E1450125AD8901432133286
:1016D400152E58EF0BF01650D8B473EF0BF075EFCE
:1016E4000BF079EF0BF0116C121ED8B0122A11C056
:1016F40011F012C012F012001350D8B484EF0BF0A2
:1017040086EF0BF08EEF0BF01350D8A48CEF0BF098
:101714008EEF0BF093EF0BF01150E3EC11F0D2EFDE
:101724000BF01350D96EDA6A0A0ED926DE50DE1099
:10173400D8B49FEF0BF0A1EF0BF0BAEF0BF01350FE
:10174400D96EDA6A0A0ED9261350E16EE26A030EE4
:10175400E126DE50E65CE650800A186EDE50800A10
:101764001858D8B0B8EF0BF0BAEF0BF0D2EF0BF07B
:101774001350D96EDA6A030ED926DF50146E135053
:10178400D96EDA6ADF501424D96EDA6A11C0DFFF29
:101794001350D96EDA6A030ED926DE2A000EDD2232
:1017A4001200D7EC11F07DC0D9FF7EC0DAFFDF6EE6
:1017B40000017D4B7E2B7F07D8A080077F518011CD
:1017C400D8B4E7EF0BF0E9EF0BF0EEEF0BF0BFEC62
:1017D40011F0050E25EF0CF08387F9EF0BF099EC6F
:1017E40011F025EF0CF09DEC11F025EF0CF06CC01E
:1017F4000AF06DC00BF002D809EF0CF00500FA6E88
:101804006051FD6E6151FE6EFF6AFA501200016E66
:10181400026A0250000AD8B412EF0CF0F5EF0BF094
:101824000150010AD8B4F5EF0BF0030AD8B4F1EF74
:101834000BF0010AD8B4F1EF0BF0070AD8B4F5EFB6
:101844000BF0F5EF0BF01200136E010E146E000195
:1018540083B52FEF0CF031EF0CF073EF0CF013C0E5
:101864007CF08393838583910E0E816F010E7B6FD1
:10187400F40E7A6F8387BA0E606F230E616F000EC9
:101884006C6F000E6D6FBA0E626F230E636F000EE5
:101894006E6F000E6F6FBA0E646F230E656F000ECD
:1018A400706F000E716FBA0E666F230E676F000EB5
:1018B400726F000E736FB60E686F230E696F000EA1
:1018C400746F000E756F780E116E230E126E8CEC11
:1018D40011F0D1EC11F0A0EC10F0C9EC11F0000EF5
:1018E400146E14501200000E196E000E196E9FEF44
:1018F4000CF057EC10F00009D8B483EF0CF085EF2E
:101904000CF07BEF0CF019501524176E000E162006
:10191400186E17C0F6FF18C0F7FF000EF86E0F0E12
:10192400F76403D00800F55005D0F6CFE9FFF7CFF0
:10193400EAFFEF5095EC11F0192A15C011F016C00A
:1019440012F090EC0EF01950176E186A1150175CD3
:1019540012501858D8A0B1EF0CF0B3EF0CF07BEF95
:101964000CF0120000018387C5EF0CF0A9EC11F014
:10197400F1EF0CF0D5EC11F0030EF1EF0CF0A5EC47
:1019840011F0F1EF0CF06CC00AF06DC00BF002D84E
:10199400D5EF0CF00500FA6E6051FD6E6151FE6EDC
:1019A400FF6AFA501200016E026A0250000AD8B4AB
:1019B400DEEF0CF0C1EF0CF00150010AD8B4C1EF16
:1019C4000CF0030AD8B4B8EF0CF0010AD8B4B8EF9D
:1019D4000CF0070AD8B4BCEF0CF0C1EF0CF0120005
:1019E4001B6E000E1C6E1B5026EC0CF00009D8B4C4
:1019F400FEEF0CF000EF0DF0F5EF0CF0560E166E46
:101A0400200E176E1C0E186E196AE9EC10F01A0EEF
:101A1400116E126A000E146E010E136E6BEC10F050
:101A2400000E166E000E176E000E186E000E196E64
:101A3400F5EC10F091EC11F0D3EC0FF0E806D8B40B
:101A440026EF0DF028EF0DF01EEF0DF01C501200E4
:101A5400D3EC11F0000183A132EF0DF034EF0DF05F
:101A640041EF0DF017EC11F00009D8B43CEF0DF084
:101A74003EEF0DF041EF0DF00F0E0001816F0001FC
:101A84008151020DF350310F046E04C0F6FF100EA5
:101A9400F76EF86A0900F5CF05F00900F5CF06F0F6
:101AA40002D85EEF0DF00500FA6E0550FD6E06508B
:101AB400FE6EFF6AFA5012000001816F1200510E8F
:101AC400156E1550D8A4100E166E75EC0CF0590E48
:101AD4003D6E55C03EF0E9EC0FF0590E156E166AD6
:101AE40075EC0CF057EC10F00009D8B47CEF0DF055
:101AF4007EEF0DF074EF0DF0430E95EC11F0600ED7
:101B0400156E1550D8A4100E166E75EC0CF057EC2B
:101B140010F00009D8B491EF0DF093EF0DF089EFB8
:101B24000DF00D0E95EC11F01200000E1D6ED00E8E
:101B34002AEC11F00001AC6F010E1D6ED00E3CECCE
:101B440011F00001AB6F020E1D6ED00E45EC11F0CA
:101B54000001AA6F060E1D6ED00E21EC11F00001DB
:101B6400AD6F050E1D6ED00E33EC11F00001AE6F9B
:101B7400040E1D6ED00E4EEC11F00001AF6F20EE7E
:101B8400AAF000EE20F0050EDBCFEBFFE806FCE246
:101B94001200156E11501210D8B4D3EF0DF0D5EF1A
:101BA4000DF0EBEF0DF01550020DF350600FD96EF0
:101BB400DA6A11C0DEFF12C0DDFF1550020DF350CA
:101BC4006C0FD96EDA6A13C0DEFF14C0DDFFFDEFBF
:101BD4000DF01550020DF350600FD96EDA6ABA0E8B
:101BE400DE6E230EDD6E1550020DF3506C0FD96EB0
:101BF400DA6ADE6ADD6A120000018391020E826FE6
:101C04000CEF0EF0A9EC11F030EF0EF0A5EC11F092
:101C140030EF0EF070C00AF071C00BF002D81CEF68
:101C24000EF00500FA6E6451FD6E6551FE6EFF6A9A
:101C3400FA501200016E026A0250000AD8B425EF6D
:101C44000EF008EF0EF00150020AD8B404EF0EF0C3
:101C5400010AD8B404EF0EF008EF0EF01200056E7E
:101C640001500210D8B439EF0EF03BEF0EF051EFF3
:101C74000EF00550020DF350600FD96EDA6A01C000
:101C8400DEFF02C0DDFF0550020DF3506C0FD96E6C
:101C9400DA6A03C0DEFF04C0DDFF63EF0EF0055017
:101CA400020DF350600FD96EDA6ABA0EDE6E230E9F
:101CB400DD6E0550020DF3506C0FD96EDA6ADE6AE0
:101CC400DD6A12001B6E1B5026EC0CF00009D8B420
:101CD4006EEF0EF070EF0EF065EF0EF01A0E116E4F
:101CE400126A000E146E010E136E6BEC10F0000EEF
:101CF400166E000E176E000E186E000E196EF5ECBF
:101D040010F091EC11F0D3EC0FF0E806D8B48DEF9D
:101D14000EF08FEF0EF085EF0EF0120011C013F0ED
:101D240012C014F098EF0EF0114A122A11C0F6FFF7
:101D340012C0F7FF000EF86E0F0EF76403D0080010
:101D4400F55005D0F6CFE9FFF7CFEAFFEF500009D1
:101D5400D8A4AFEF0EF0B1EF0EF096EF0EF01350E3
:101D6400115C116E14501258126E1200B1EC10F086
:101D7400F28EF28CF28C97EC0DF020EEA4F0050EAE
:101D8400EBCFDBFFE806FCE29A0EDDEC10F0556EBB
:101D9400CAEC0AF06EEC0AF061EC0DF055C01AF0D2
:101DA400700E64EC0EF0BDEF0EF05BEF00F020EE71
:101DB40002F00A50D9260B50DA22DF500C6E0CC008
:101DC40001F0026A0AC0D9FF0BC0DAFFDECF03F0CC
:101DD400DDCF04F07DEC10F0000E066E000E076EF1
:101DE400000E086E000E096E01EC11F0020E1200D6
:101DF400116E010E126E000183B303EF0FF005EFB5
:101E04000FF018EF0FF08383000E126E1150D8B448
:101E14000EEF0FF010EF0FF014EF0FF0010E816FC3
:101E240016EF0FF0020E816FCBEC11F0125012007E
:101E340029C02BF026EF0FF028C01BF02B0E1C6ED0
:101E44002AC01DF042EC08F02BC0F6FF100EF76E0E
:101E5400F86A0800F5500009D8A433EF0FF035EF05
:101E64000FF01EEF0FF0000E296E000E286E120008
:101E7400480EB86E900EAB6E260EAC6ECF0EAF6EE3
:101E8400000EB06E000E116E000E126ECFEC10F04C
:101E9400000E116E000E126EC1EC10F0000E4A6EB0
:101EA400000E496E1200D08EF292F18C000E116E6B
:101EB400000E126E82EC11F0F090F18A000E116E99
:101EC400000E126E7DEC11F0F092F188000E116E8E
:101ED400000E126E78EC11F012002E0E306E2CC033
:101EE40031F0000E356E000E346E000E3C6E000EA6
:101EF4003B6E310E286E2DC029F0300E2A6E1AEC7E
:101F04000FF02C503424D96EDA6ADF6A120018BE3E
:101F14008EEF0FF090EF0FF096EF0FF017C017F061
:101F240018C018F0A2EF0FF017C019F018C01AF07B
:101F3400191E1A1E194A1A2A19C017F01AC018F0C5
:101F44001200000E896E000E8A6E000E8B6E000E5B
:101F54008C6E000E8D6E92689368BF0E946E9568B9
:101F6400070E966E1F0E7F6E7C68000E7D6EF286E5
:101F7400120011C016F0C5EF0FF01650D96EDA6AD0
:101F840012C0DFFF162A1406D8A01506142806E18D
:101F94001528D8A4D0EF0FF0D2EF0FF0BFEF0FF059
:101FA4001200010E116E000183B3DBEF0FF0DDEFC1
:101FB4000FF0E7EF0FF083957C69D1EC11F0CDECD5
:101FC40011F0CFEC11F082C011F0115012003DC09D
:101FD40011F0000E136E000E126E000E156E030E3D
:101FE400146EBBEC0FF03DC02CF07F0E2D6E3EC086
:101FF4002EF02F6A6FEC0FF012000AC001F00BC034
:1020040002F0000E046E010E036E7DEC10F0000E63
:10201400066E000E076E000E086E000E096E01ECCF
:1020240011F0040E12000AC001F00BC002F0000E01
:10203400046E020E036E7DEC10F0000E066E000EB0
:10204400076E000E086E000E096E01EC11F0020E10
:1020540012000AC001F00BC002F0000E046E010E63
:10206400036E7DEC10F0000E066E000E076E000E7F
:10207400086E000E096E01EC11F0020E12000AC087
:1020840001F00BC002F0000E046E020E036E7DEC34
:1020940010F0000E066E000E076E000E086E000EA5
:1020A400096E01EC11F0040E1200000E116E9EA8D0
:1020B4005EEF10F060EF10F069EF10F0ACAA65EF7E
:1020C40010F067EF10F069EF10F0010E116E11506F
:1020D4001200000183A771EF10F073EF10F07CEF92
:1020E40010F011C07DF012C07EF013C07FF014C058
:1020F40080F083971200000183A783EF10F085EF2F
:1021040010F08EEF10F001C07DF002C07EF003C02D
:102114007FF004C080F08397120000EE60F0500E50
:10212400EE6AE806FDE100EE41F01C0EEE6AE806F8
:10213400FDE15D905D920001B8EF0EF0C6BAA5EF27
:1021440010F0A7EF10F0B0EF10F0800EC76E080E7D
:10215400C66E000EC56E270EC86EC68A120087ECC6
:1021640011F0A3EC0FF03AEC0FF00DEC11F0B9EC18
:1021740011F09590C7EC11F055EC0FF012001150CE
:102184001210D8B4C8EF10F0CAEF10F0CEEF10F070
:1021940011C045F012C046F0120011501210D8B40C
:1021A400D6EF10F0D8EF10F0DCEF10F011C047F0CC
:1021B40012C048F012001E6E000E1D6E000E1A6E44
:1021C4001E50F2EC0CF01F6EC9501F50120016C0C6
:1021D40011F017C012F018C013F019C014F0000E5B
:1021E400CBEC0DF0120016C011F017C012F018C09D
:1021F40013F019C014F0020ECBEC0DF0120006C05F
:1022040001F007C002F008C003F009C004F0000E9A
:1022140031EC0EF01200800EC76E080EC66E000E72
:10222400C56E270EC86EC69A1200C5BC1CEF11F00D
:102234001FEF11F0010E20EF11F0000E12001E6EC0
:102244001DC01AF01E50F2EC0CF01F6E1F5012004D
:102254001E6E1DC01AF01E50F2EC0CF01F6E1F50C3
:1022640012001E6E1DC01AF01E50F2EC0CF01F6E10
:102274001F5012001E6E1DC01AF01E50F2EC0CF01E
:102284001F6E1F5012001E6E1DC01AF01E50F2EC7D
:102294000CF01F6E1F5012001E6E1DC01AF01E504F
:1022A400F2EC0CF01F6E1F501200000183817C5170
:1022B4000109B5EC11F0050E1200000183817C5177
:1022C400B5EC11F0030E120000018393000E826F2F
:1022D4000E0E120000018391D9EC11F0040E1200CD
:1022E40000018393000E826F0E0E120011C04BF09A
:1022F40012C04CF0120011C04DF012C04EF012008A
:1023040011C04FF012C050F01200300ED36E000E08
:102314009B6E120011C051F012C052F01200000E58
:10232400FAEC0EF01200116E11C0ADFF1200C2ECF7
:1023340011F0090E1200C2EC11F00A0E1200BFECEB
:1023440011F0050E1200DFEC11F0000E1200E1ECAA
:1023540011F0010E1200E1EC11F0020E1200E1EC9A
:1023640011F0010E1200016E01C0C9FF1200C5EC8C
:1023740011F012002AEC0DF01200C59AC588120063
:10238400C58AC5881200A6961200AB8812009D86E5
:102394001200C58012009D961200C69A12009E96E5
:1023A40012009E9612009E861200C9501200C58625
:1023B4001200050E1200010E1200C5841200C5821F
:0423C40012001200F1
:020000040030CA
:0E000000FF021F1EFF8B85FF0FC00FE00F4099
:00000001FF
